:100000000C942A000C9447000C9447000C94470071
:100010000C9447000C9447000C9447000C94470044
:100020000C9447000C9447000C9447000C94DC009F
:100030000C94C3000C9447000C9447000C944700A8
:100040000C9447000C9447000C9447000C94470014
:100050000C94470011241FBECFE5D4E0DEBFCDBF16
:1000600010E0A0E6B0E0EAE5F2E002C005900D92F3
:10007000AC36B107D9F720E0ACE6B0E001C01D9284
:10008000A23BB207E1F70E9449000C942B010C94AB
:10009000000085E089B910BC88E98AB978942FEF0F
:1000A0008FEB91E2215080409040E1F700C00000CA
:1000B00080E690E00E9496002FEF8FEB91E22150B6
:1000C00080409040E1F700C0000080916C0090916A
:1000D0006D000E94A60088E690E00E9496002FEF37
:1000E0008FEB91E2215080409040E1F700C000008A
:1000F00080916C0090916D00019690936D008093BB
:100100006C00E3CF909190009F5F9F7120918E00D3
:100110009217E1F3E92FF0E0EE56FF4F80838FB79F
:10012000F89490939000559A8FBF0895CF93DF93E2
:10013000EC012196FC018081882329F00E94820035
:1001400089918111FBCFDF91CF910895CF93DF93F8
:10015000CDB7DEB727970FB6F894DEBF0FBECDBF81
:100160004AE0BE016F5F7F4F0E94F600CE0101960C
:100170000E94960027960FB6F894DEBF0FBECDBF43
:10018000DF91CF9108950F930FB7EF93FF93E09115
:100190008E00F0919000E395EF71EF1301C0559838
:1001A000E0938E00F0E0EE56FF4FE081ECB9FF9156
:1001B000EF910FBF0F9118950F930FB79F939CB1BD
:1001C000EF93FF93E0919100F0918F00E395EF7131
:1001D000FE1731F0E0939100F0E0E259FF4F908379
:1001E000FF91EF919F910FBF0F911895BB274A3058
:1001F00031F4992322F4BDE2909581959F4F0C94A0
:100200000201BB27FB015527AA27880F991FAA1FA8
:10021000A41710F0A41B83955051B9F7A05DAA3321
:1002200008F0A95DA193009779F7B111B1931192EC
:10023000CB010C941B01DC01FC01672F719177232A
:10024000E1F7329704C07C916D9370836291AE1791
:0A025000BF07C8F30895F894FFCF2C
:0C025A0066617261646172730D0A00003D
:00000001FF
