:100000000C942A000C943C000C943C000C943C0092
:100010000C943C000C943C000C943C000C943C0070
:100020000C943C000C943C000C943C000C94490053
:100030000C943C000C943C000C943C000C943C0050
:100040000C943C000C943C000C943C000C943C0040
:100050000C943C0011241FBECFE5D8E0DEBFCDBF1D
:1000600020E0A0E6B0E001C01D92A436B207E1F79F
:100070000E945A000C9499000C94000083B784608D
:1000800083BF12BE89B7816089BF789410926300E4
:1000900008951F920F920FB60F9211248F938091A3
:1000A00063008F5F809363008F910F900FBE0F905E
:1000B0001F9018958FEF8ABB1BBA14BA85BB889A1C
:1000C0000E943E0091E048E034E022E083B3847077
:1000D00080936000811103C09093620004C08091FE
:1000E00062008130A1F480916300823380F082B796
:1000F000853368F0809161008F5F853018F48093BC
:10010000610002C09093610012BE10926300809162
:100110006100813011F49BBBD9CF823011F42BBB2D
:10012000D5CF833011F43BBBD1CF843079F64BBBB4
:06013000CDCFF894FFCFD3
:00000001FF
