S00D0000436F6465422E737265635A
S11300000C942A000C9447000C9447000C9447006D
S11300100C9447000C9447000C9447000C94470040
S11300200C9447000C9447000C9447000C94470030
S11300300C9447000C94DD000C94C4000C9447000D
S11300400C9447000C9447000C9447000C94470010
S11300500C94470011241FBECFE5D8E0DEBFCDBF0E
S113006010E0A0E6B0E0E8E2FAE002C005900D92EC
S1130070A436B107D9F720E0A4E6B0E001C01D9290
S1130080AB3BB207E1F70E945F000C9412050C949D
S113009000001ABA87E886B980E487B908958770A2
S11300A0806487B9369A349BFECF349A8FEC97E0FC
S11300B00197F1F700C0000084B195B108958FEF66
S11300C087BB18BA11BA12BA0E94490083E389B9EE
S11300D010BC88E98AB9789400E610E0C6E6D0E05E
S11300E080E00E944F00BC01990F880B990B0E947D
S11300F02F012FE832EC45EF5EE30E9493010E944A
S1130100F70060936400709365007F936F931F936F
S11301100F93DF93CF930E942802CE010E94B40074
S11301209FEF29E688E1915020408040E1F700C02C
S113013000000F900F900F900F900F900F90D0CF62
S1130140909199009F5F9F71209197009217E1F31E
S1130150E92FF0E0E556FF4F80838FB7F894909332
S11301609900559A8FBF0895CF93DF93EC012196A0
S1130170FC018081882329F00E94A00089918111CB
S1130180FBCFDF91CF9108950F930FB7EF93FF93B8
S1130190E0919700F0919900E395EF71EF1301C09E
S11301A05598E0939700F0E0E556FF4FE081ECB9F5
S11301B0FF91EF910FBF0F9118950F930FB79F9376
S11301C09CB1EF93FF93E0919A00F0919800E3952E
S11301D0EF71FE1731F0E0939A00F0E0E958FF4F19
S11301E09083FF91EF919F910FBF0F9118950E94FB
S11301F0FE006894B1110C948D0108950E9472015F
S113020088F09F5798F0B92F9927B751B0F0E1F0D3
S1130210660F771F881F991F1AF0BA95C9F714C083
S1130220B13091F00E948C01B1E008950C948C01DE
S1130230672F782F8827B85F39F0B93FCCF38695BC
S113024077956795B395D9F73EF490958095709519
S113025061957F4F8F4F9F4F0895E89409C097FB96
S11302603EF490958095709561957F4F8F4F9F4F89
S11302709923A9F0F92F96E9BB279395F6958795CD
S113028077956795B795F111F8CFFAF4BB0F11F490
S113029060FF1BC06F5F7F4F8F4F9F4F16C0882337
S11302A011F096E911C0772321F09EE8872F762F6D
S11302B005C0662371F096E8862F70E060E02AF0AE
S11302C09A95660F771F881FDAF7880F969587959A
S11302D097F9089557FD9058440F551F59F05F3F03
S11302E071F04795880F97FB991F61F09F3F79F054
S11302F087950895121613061406551FF2CF4695D6
S1130300F1DF08C0161617061806991FF1CF869557
S11303107105610508940895E894BB27662777273B
S1130320CB0197F908950E94A6010C9417020E942C
S1130330090238F00E94100220F0952311F00C9469
S113034000020C94060211240C948D010E946A018F
S113035070F3959FC1F3950F50E0551F629FF00114
S1130360729FBB27F00DB11D639FAA27F00DB11D2D
S1130370AA1F649F6627B00DA11D661F829F2227B6
S1130380B00DA11D621F739FB00DA11D621F839F3D
S1130390A00D611D221F749F3327A00D611D231F13
S11303A0849F600D211D822F762F6A2F11249F5761
S11303B050409AF0F1F088234AF0EE0FFF1FBB1F64
S11303C0661F771F881F91505040A9F79E3F510523
S11303D080F00C9400020C948D015F3FE4F3983E8E
S11303E0D4F3869577956795B795F795E7959F5FCD
S11303F0C1F7FE2B880F911D9695879597F908955F
S113040097F99F6780E870E060E008959FEF80ECC3
S1130410089500240A941616170618060906089566
S113042000240A9412161306140605060895092ECC
S11304300394000C11F4882352F0BB0F40F4BF2B3B
S113044011F460FF04C06F5F7F4F8F4F9F4F08957B
S1130450AEE0B0E0EEE2F2E00C94E9040D891E890E
S113046086E08C831A8309838FEF9FE79E838D83B5
S1130470AE01475E5F4F6F89788DCE0101960E9471
S11304804A02EF81F885E00FF11F10822E96E4E016
S11304900C940505ABE0B0E0E0E5F2E00C94DB047D
S11304A06C017B018A01FC0117821682838181FF22
S11304B0CCC1CE0101963C01F6019381F70193FD75
S11304C0859193FF81917F01882309F4BAC1853214
S11304D039F493FD859193FF81917F01853229F44D
S11304E0B60190E00E944104E7CF912C212C312CDD
S11304F0FFE1F315D8F08B3279F038F4803279F0DB
S11305008332A1F4232D20611DC08D3261F080332C
S113051069F4232D216016C0832D8260382EE32DCB
S1130520E4603E2E2AC0F32DF8601DC037FC2DC0B8
S113053020ED280F2A3040F08E32B9F436FC81C108
S1130540232D2064322E19C036FE06C08AE0989E00
S1130550200D1124922E11C0EAE02E9E200D1124AC
S1130560222EF32DF0623F2E08C08C3621F4832D09
S11305708068382E02C0883641F4F70193FD8591D6
S113058093FF81917F018111B3CF982F9F7D955463
S1130590933028F40C5F1F4F9FE399830DC083367B
S11305A031F0833771F0833509F059C021C0F80167
S11305B0808189830E5F1F4F88248394912C53017B
S11305C013C02801F2E04F0E511CF801A080B18045
S11305D036FE03C0692D70E002C06FEF7FEFC501E6
S11305E00E9436044C018201F32DFF773F2E16C082
S11305F0280122E0420E511CF801A080B18036FE91
S113060003C0692D70E002C06FEF7FEFC5010E9447
S11306102B044C01F32DF0683F2E820133FC1BC0E8
S1130620822D90E088169906B0F4B60180E290E03D
S11306300E9441042A94F4CFF50137FC859137FEDA
S113064081915F01B60190E00E94410421102A9437
S113065021E0821A91088114910471F7E8C084366C
S113066011F0893641F5F80137FE07C060817181C8
S1130670828193810C5F1F4F08C060817181072EB6
S1130680000C880B990B0E5F1F4FF32DFF763F2E46
S113069097FF09C090958095709561957F4F8F4F16
S11306A09F4FF0683F2E2AE030E0A3010E947D04B2
S11306B0882E861845C0853731F4232D2F7EB22E1F
S11306C02AE030E025C0932D997FB92E8F36C1F0F2
S11306D018F4883579F0B5C0803719F0883721F0DF
S11306E0B0C0E92FE061BE2EB4FE0DC0FB2DF46056
S11306F0BF2E09C034FE0AC0292F2660B22E06C0C0
S113070028E030E005C020E130E002C020E132E022
S1130710F801B7FE07C060817181828193810C5F0B
S11307201F4F06C06081718180E090E00E5F1F4F13
S1130730A3010E947D04882E8618FB2DFF773F2E8F
S113074036FE0DC0232D2E7FA22E891458F434FEBC
S11307500BC032FC09C0832D8E7EA82E05C0B82C98
S1130760A32C03C0B82C01C0B92CA4FE0FC0FE01F9
S1130770E80DF11D8081803321F49A2D997EA92EF4
S113078009C0A2FE06C0B394B39404C08A2D86782F
S113079009F0B394A3FC11C0A0FE06C0B21488F4FF
S11307A0280C922C9B180EC0B21460F4B60180E29F
S11307B090E00E944104B394F7CFB21418F42B18BC
S11307C002C0982C212CA4FE10C0B60180E390E056
S11307D00E944104A2FE17C0A1FC03C088E790E078
S11307E002C088E590E0B6010CC08A2D867859F0E5
S11307F0A1FE02C08BE201C080E2A7FC8DE2B6013B
S113080090E00E944104891438F4B60180E390E03A
S11308100E9441049A94F7CF8A94F301E80DF11DE4
S11308208081B60190E00E9441048110F5CF22201E
S113083009F442CEB60180E290E00E9441042A9479
S1130840F6CFF6018681978102C08FEF9FEF2B963A
S1130850E2E10C94F704FC01059061507040011032
S1130860D8F7809590958E0F9F1F0895FC016150D5
S1130870704001900110D8F7809590958E0F9F1FBE
S113088008950F931F93CF93DF93FB01238121FDE1
S113089003C08FEF9FEF2CC022FF16C04681578103
S11308A0248135814217530744F4A081B1819D010D
S11308B02F5F3F4F318320838C93268137812F5FB5
S11308C03F4F3783268314C08B01EC01FB01008466
S11308D0F185E02D0995892BE1F6D80116968D91C5
S11308E09C911797019617969C938E931697CE0119
S11308F0DF91CF911F910F910895FA01AA27283013
S113090051F1203181F1E8946F936E7F6E5F7F4FD8
S11309108F4F9F4FAF4FB1E03ED0B4E03CD0670F54
S1130920781F891F9A1FA11D680F791F8A1F911DA7
S1130930A11D6A0F711D811D911DA11D20D009F4F7
S113094068943F912AE0269F11243019305D319339
S1130950DEF6CF010895462F4770405D4193B3E022
S11309600FD0C9F7F6CF462F4F70405D4A3318F0C9
S1130970495D31FD4052419302D0A9F7EACFB4E07A
S1130980A6959795879577956795BA95C9F7009732
S11309906105710508959B01AC010A2E06945795D3
S11309A0479537952795BA95C9F7620F731F841F2A
S11309B0951FA01D08952F923F924F925F926F92C0
S11309C07F928F929F92AF92BF92CF92DF92EF92DB
S11309D0FF920F931F93CF93DF93CDB7DEB7CA1B5C
S11309E0DB0B0FB6F894DEBF0FBECDBF09942A8887
S11309F0398848885F846E847D848C849B84AA842F
S1130A00B984C884DF80EE80FD800C811B81AA81BB
S1130A10B981CE0FD11D0FB6F894DEBF0FBECDBF86
S10B0A20ED010895F894FFCFE5
S1070A28202564001D
S9030000FC
