:100000000C9430000C944D000C944D000C944D0059
:100010000C944D000C944D000C944D000C944D002C
:100020000C944D000C944D000C944D000C944D001C
:100030000C944D000C946A010C9451010C944D00E9
:100040000C944D000C944D000C944D000C944D00FC
:100050000C944D006364696E6F70737578585B0023
:1000600011241FBECFE5D8E0DEBFCDBF10E0A0E673
:10007000B0E0ECEDF9E002C005900D92AC37B107AD
:10008000D9F720E0ACE7B0E001C01D92A93EB2076D
:10009000E1F70E94D4000C94EC040C9400002BB304
:1000A0002F7030E1839FC0011124822B8BBBDA9823
:1000B000DA9ADA9884E68A95F1F70895CF93C82FF3
:1000C000662311F0D89A01C0D898D9988C2F8295C0
:1000D0008F700E944F008C2F0E944F00CF91089587
:1000E00060E00E945E00089561E00E945E00089555
:1000F0008AB3876F8ABB85EA9EE00197F1F700C05B
:1001000000008BB3887F8BBB80E094E00197F1F710
:1001100000C0000083E00E944F0080E094E001975F
:10012000F1F700C0000083E00E944F0080E094E0FF
:100130000197F1F700C0000083E00E944F0080E0CB
:1001400094E00197F1F700C0000082E00E944F00A8
:1001500088E20E94700010927C0088E00E9470008B
:10016000089580917C00982F946090937C008C601F
:100170000E9470000895E62FF0E0E259FF4F908151
:10018000890F80680E9470000895CF93DF93EC017F
:100190008881882331F021960E9474008991811111
:1001A000FBCFDF91CF9108958FEF8ABB1BBA83E31A
:1001B00089B910BC88E98AB97894E3EEF0E080E66A
:1001C00090E093838283918380830E9478000E94D1
:1001D000B100CDE7D0E009E710E060E080E00E94E8
:1001E000BB0082E790E00E94C5002FEF89E698E10E
:1001F000215080409040E1F700C00000DF93CF9392
:100200001F930F930E948401CE010E94C5000F909E
:100210000F900F900F90E1CF9091C1009F5F9F7161
:100220002091BF009217E1F3E92FF0E0ED53FF4F6B
:1002300080838FB7F8949093C100559A8FBF08952B
:10024000CF93C82F8A3019F48DE00E940C018C2FB7
:100250000E940C0180E090E0CF9108958091C00051
:100260009091C200891761F08F5F8F71E82FF0E0E5
:10027000E156FF4F90818093C000892F90E0089550
:100280008FEF9FEF0895CF93DF930E942E01EC0133
:100290009923DCF30E940C01CE019927DF91CF91C5
:1002A00008950F930FB7EF93FF93E091BF00F09184
:1002B000C100E395EF71EF1301C05598E093BF00C3
:1002C000F0E0ED53FF4FE081ECB9FF91EF910FBFEC
:1002D0000F9118950F930FB79F939CB1EF93FF93D6
:1002E000E091C200F091C000E395EF71FE1731F08C
:1002F000E093C200F0E0E156FF4F9083FF91EF9151
:100300009F910FBF0F911895A0E0B0E0EAE8F1E0EF
:100310000C94C504AE014B5F5F4FFA01619171917E
:10032000AF018091E3009091E4000E943603E2E087
:100330000C94E10420FD09C0FC0123FD05C022FF4F
:1003400002C07383628351834083089544FD17C0C4
:1003500046FD17C0AB01BC01DA01FB01AA0FBB1FB0
:10036000EE1FFF1F1094D1F74A0F5B1F6E1F7F1FF8
:10037000CB01BA01660F771F881F991F09C033E0B0
:1003800001C034E0660F771F881F991F3150D1F7E5
:10039000620F711D811D911D08950F931F93CF93BF
:1003A000DF938C01C8010E945B04EC0197FD08C03B
:1003B0000E944704892BB1F7B801CE010E9499042D
:1003C000CE01DF91CF911F910F9108958F929F924F
:1003D000AF92BF92EF92FF920F931F93CF93DF9351
:1003E0008C01D62F7A01B22E0E945B049C01332728
:1003F0002B32310531F02D32310561F48B2D8068BF
:10040000B82ED15011F480E068C0C8010E945B048E
:1004100097FDF9CFCB2DCD7F2B2D207309F58033A0
:10042000F9F4AA24AA94AD0E09F443C0C8010E94AD
:100430005B0497FD3EC09C012F7D33272835310595
:1004400049F4C264D250A9F1C8010E945B0497FF2D
:1004500007C02FC0B6FE02C0C26001C0C261DA2D63
:10046000812C912C540120ED280F283080F0C4FFFE
:1004700004C0B8010E94990419C02A3040F0C6FF98
:10048000F8CF2F7D3FEE320F363098F727504C2FA4
:10049000C501B4010E94A6014B015C01C260D150AC
:1004A00059F0C8010E945B0497FFDDCFC1FD04C075
:1004B000AACF812C912C5401C7FF08C0B094A094FE
:1004C00090948094811C911CA11CB11C2C2FB5010F
:1004D000A401C7010E949A0181E0DF91CF911F9191
:1004E0000F91FF90EF90BF90AF909F908F900895E5
:1004F000A0E2B0E0EEE7F2E00C94B8045C01962EC6
:100500007A01F9018E010F5F1F4F680180E2D80167
:100510001D928A95E9F7D50113968C9080E090E0C2
:10052000612C712C30E061E070E083FC259183FE4A
:1005300021918F01522E211103C080E090E092C0E2
:100540002E3511F4009751F1432F50E04817590709
:100550003CF42D3559F12D3219F4772009F103C0FF
:10056000772009F46AC0452D469546954695D601F3
:10057000A40FB11D452D47708B0102C0000F111F44
:100580004A95E2F7A8015C91452B4C93651459F00C
:10059000561410F45394E7CF5A94E5CF31E004C0D9
:1005A0007724739401C0712C0196BFCF772019F086
:1005B0008E8180628E83311103C08824839417C09A
:1005C000F6019E012F5D3F4F8081809581932E170C
:1005D0003F07D1F7F2CFE114F10429F0D7018C9352
:1005E000F70131967F019A94812C9920F9F0C50189
:1005F0000E945B0497FD18C0FC01FF2723E0F595DE
:10060000E7952A95E1F7EC0DFD1D208130E0AC0166
:100610004770552702C0359527954A95E2F720FD8A
:10062000DACFB5010E949904811087CFE114F1045B
:1006300011F0D7011C92C80115C0422F469546956E
:100640004695D601A40FB11D422F47708B0102C001
:10065000000F111F4A95E2F7A8015C91452B4C93BE
:10066000622EA2CFA096EFE00C94D404A0E0B0E0FC
:10067000ECE3F3E00C94B8046C01EB015A01FC01CB
:1006800017821682512CF601E380FE01E3FC85916E
:10069000E3FE8191182FEF01882309F4EEC090E06A
:1006A0000E944704892B21F0C6010E94CD01EBCFA7
:1006B000153241F4FE01E3FC1591E3FE1191EF01C7
:1006C000153281F4C6010E945B0497FDD4C0412F0E
:1006D00050E09C01332724173507A9F2B6010E9488
:1006E0009904CBC01A3239F4E3FC1591E3FE119161
:1006F000EF0101E001C000E0F12C20ED210F2A30D4
:1007000080F402606F2D70E080E090E040E20E9493
:10071000A601F62EFE01E3FC1591E3FE1191EF0117
:10072000ECCF01FF03C0F11003C0A7C0FF24FA946F
:10073000183619F01C3651F010C0FE01E3FC15917B
:10074000E3FE1191EF01183641F408600460FE01E8
:10075000E3FC1591E3FE1191EF01112309F48DC023
:10076000612F70E084E590E00E945004892B09F429
:1007700084C000FD07C0F50180809180C50102960C
:100780005C0102C0812C912C1E3651F4F601468189
:10079000578160E070E0202FC4010E949A0173CF5E
:1007A0001336A9F401FD02C0FF24F394C6010E9490
:1007B0005B0497FD60C08114910429F0F4018083EB
:1007C000C40101964C01FA94F110F0CF50C01B35D2
:1007D00059F49E01A4016F2DC6010E947802EC011C
:1007E000892B09F044C03EC0C6010E94CD0197FD8F
:1007F00042C01F3661F128F4143639F1193651F12F
:1008000028C0133771F0153701F123C0811491040A
:1008100029F0F4016082C40101964C01FA94FF2092
:1008200071F0C6010E945B043C0197FD08C00E9464
:100830004704892B59F3B601C3010E94990481141E
:100840009104A9F0F401108212C0006203C000619B
:1008500001C00064202FA4016F2DC6010E94E60193
:10086000811105C0F6018381807329F406C000FD63
:100870000ACF539408CF552019F0852D90E002C07F
:100880008FEF9FEFCDB7DEB7EFE00C94D40491115A
:100890000C94B204803219F089508550C8F708953D
:1008A000FC010590061621F00020D9F7C00108953B
:1008B0003197CF010895CF93DF93EC012B8120FF77
:1008C00033C026FF0AC02F7B2B838E819F81019628
:1008D0009F838E838A8190E029C022FF0FC0E88128
:1008E000F9818081082E000C990B009719F4206281
:1008F0002B831AC03196F983E8830EC0EA85FB8505
:10090000099597FF09C02B81019611F080E201C083
:1009100080E1822B8B8308C02E813F812F5F3F4F68
:100920003F832E83992702C08FEF9FEFDF91CF91F6
:100930000895FB01238120FF12C026FD10C08F3FC8
:100940003FEF930761F082832F7D2064238326810C
:1009500037812150310937832683992708958FEFF6
:100960009FEF08959927882708952F923F924F92DD
:100970005F926F927F928F929F92AF92BF92CF922F
:10098000DF92EF92FF920F931F93CF93DF93CDB738
:10099000DEB7CA1BDB0B0FB6F894DEBF0FBECDBFB0
:1009A00009942A88398848885F846E847D848C8481
:1009B0009B84AA84B984C884DF80EE80FD800C818A
:1009C0001B81AA81B981CE0FD11D0FB6F894DEBF6D
:0C09D0000FBECDBFED010895F894FFCFDD
:1009DC000000000300000000200143010000004063
:0C09EC00145454656D703A20002573000F
:00000001FF
