:100000000C942A000C9447000C9447000C94470071
:100010000C9447000C9447000C9447000C94470044
:100020000C9447000C9447000C9447000C94470034
:100030000C9447000C94F1020C94D8020C944700E5
:100040000C9447000C9447000C9447000C94470014
:100050000C94470011241FBECFE5D8E0DEBFCDBF12
:1000600010E0A0E6B0E0E6E4FCE002C005900D92EE
:10007000A83AB107D9F721E0A8EAB0E001C01D9283
:10008000A933B207E1F70E94EE010C9421060C940B
:1000900000002BB32F7030E1839FC0011124822B0D
:1000A0008BBBDA98DA9ADA9884E68A95F1F70895A4
:1000B000CF93C82F662311F0D89A01C0D898D99849
:1000C0008C2F82958F700E9449008C2F0E944900CE
:1000D000CF91089560E00E945800089561E00E9469
:1000E000580008958AB3876F8ABB85EA9EE001971E
:1000F000F1F700C000008BB3887F8BBB80E094E0F9
:100100000197F1F700C0000083E00E94490080E001
:1001100094E00197F1F700C0000083E00E944900DD
:1001200080E094E00197F1F700C0000083E00E94B6
:10013000490080E094E00197F1F700C0000082E000
:100140000E94490088E20E946A001092B90088E08B
:100150000E946A0008958091B900982F946090934E
:10016000B9008C600E946A00089581E00E946A00D4
:1001700083EF91E00197F1F700C000000895E62FAA
:10018000F0E0ED58FF4F9081890F80680E946A006F
:100190000895CF93DF93EC018881882331F0219675
:1001A0000E946E0089918111FBCFDF91CF9108955C
:1001B000CF93DF93CDB7DEB79E012B5F3F4FF901A1
:1001C000419151919F0161E170E088EA90E00E94C5
:1001D0002D0388EA90E00E94C900DF91CF91089535
:1001E0009091BE00911116C02091BC003091BD00CD
:1001F000A901440F551F220F331F220F331F220F57
:10020000331F240F351F280F311D3093BD0020935D
:10021000BC0008959130A9F42091BA003091BB0040
:10022000A901440F551F220F331F220F331F220F26
:10023000331F240F351F280F311D3093BB0020932F
:10024000BA00089580EE88BB86B38E3E41F486B333
:100250008E3EE9F381E08093BF000E94F00086B3F8
:100260008D3E41F486B38D3EE9F382E08093BF007A
:100270000E94F00086B38B3E41F486B38B3EE9F3D7
:1002800083E08093BF000E94F00080ED88BB86B3BE
:100290008E3D41F486B38E3DE9F384E08093BF0048
:1002A0000E94F00086B38D3D41F486B38D3DE9F3A5
:1002B00085E08093BF000E94F00086B38B3D41F43F
:1002C00086B38B3DE9F386E08093BF000E94F00087
:1002D00080EB88BB86B38E3B41F486B38E3BE9F35B
:1002E00087E08093BF000E94F00086B38D3B41F40D
:1002F00086B38D3BE9F388E08093BF000E94F00055
:1003000086B38B3B41F486B38B3BE9F389E0809362
:10031000BF000E94F00080E788BB86B38E3791F55E
:1003200086B38E37E9F38091BE00813021F52091AC
:100330006200309163008091BC009091BD0028174D
:10034000390799F420916000309161008091BA00E2
:100350009091BB0028173907A1F58AE08093BE0071
:100360001092BF0082E085BB0BC08FEF8093BE0070
:1003700081E085BB05C0811103C081E08093BE0090
:100380000E94B50086B38D3741F486B38D37E9F30B
:100390001092BF0080E00E94F00086B38B37E9F432
:1003A00086B38B37E9F31092BE001092BD00109215
:1003B000BC001092BB001092BA0015BA0E94B500A2
:1003C000089520916000309161008091BA00909171
:1003D000BB002817390749F6D3CF08958FEF8ABBA2
:1003E0001BBA90EF97BB9FE098BB84BB15BA83E321
:1003F00089B910BC88E98AB97894E3E3F1E085E62D
:1004000090E093838283918380830E9472000E9494
:10041000AB000F2EFFE9AF2EF0E0BF2EF02D0F2E18
:10042000FEE8CF2EF0E0DF2EF02D00EC10E00F2ED6
:10043000F4E8EF2EF0E0FF2EF02DC7E7D0E080913A
:10044000BE00811112C060E00E94BF008091BD001B
:100450008F938091BC008F93DF93CF930E94D8003D
:100460000F900F900F900F904BC0813099F460E087
:1004700080E00E94BF008091BB008F938091BA0002
:100480008F93FF92EF920E94D8000F900F900F90E1
:100490000F9036C08F3F49F460E080E00E94BF00BB
:1004A00081E990E00E94C9002BC08A3049F560E0E4
:1004B00080E00E94BF0087E990E00E94C90061E0EF
:1004C00080E00E94BF00809164001F928F93BF92D2
:1004D000AF920E94D800809164001F928F93DF92A8
:1004E000CF921F930F930E940B03C8010E94A50295
:1004F0008DB79EB70A960FB6F8949EBF0FBE8DBFFC
:100500000E9422019CCF909111019F5F9F712091C9
:100510000F019217E1F3E92FF0E0ED5EFE4F8083CB
:100520008FB7F89490931101559A8FBF0895CF9388
:10053000C82F8A3019F48DE00E9483028C2F0E940C
:10054000830280E090E0CF910895CF93DF93EC0198
:100550002196FC018081882329F00E9483028991E1
:100560008111FBCFDF91CF9108958091100190917F
:100570001201891761F08F5F8F71E82FF0E0E15170
:10058000FF4F908180931001892F90E008958FEFA5
:100590009FEF0895CF93DF930E94B502EC0199235A
:1005A000DCF30E948302CE019927DF91CF91089559
:1005B0000F930FB7EF93FF93E0910F01F0911101AB
:1005C000E395EF71EF1301C05598E0930F01F0E050
:1005D000ED5EFE4FE081ECB9FF91EF910FBF0F91FF
:1005E00018950F930FB79F939CB1EF93FF93E091F2
:1005F0001201F0911001E395EF71FE1731F0E093D5
:100600001201F0E0E151FF4F9083FF91EF919F9134
:100610000FBF0F911895AEE0B0E0E1E1F3E00C946C
:10062000F8050D891E8986E08C831A8309838FEF74
:100630009FE79E838D83AE01475E5F4F6F89788D04
:10064000CE0101960E945903EF81F885E00FF11F5A
:1006500010822E96E4E00C941406AEE0B0E0E3E3E2
:10066000F3E00C94F8058C01FA0186E08C831A8380
:10067000098377FF02C060E070E8CB0101979E8399
:100680008D83A901BF01CE0101960E9459034D81BE
:100690005E8157FD0AC02F813885421753070CF43D
:1006A0009A01F801E20FF31F10822E96E4E00C94F9
:1006B0001406ABE0B0E0EFE5F3E00C94EA056C0162
:1006C0007B018A01FC0117821682838181FFCCC1E4
:1006D000CE0101963C01F6019381F70193FD8591CE
:1006E00093FF81917F01882309F4BAC1853239F4DF
:1006F00093FD859193FF81917F01853229F4B601A5
:1007000090E00E945005E7CF912C212C312CFFE185
:10071000F315D8F08B3279F038F4803279F08332E7
:10072000A1F4232D20611DC08D3261F0803369F466
:10073000232D216016C0832D8260382EE32DE460C6
:100740003E2E2AC0F32DF8601DC037FC2DC020EDD1
:10075000280F2A3040F08E32B9F436FC81C1232DA7
:100760002064322E19C036FE06C08AE0989E200D05
:100770001124922E11C0EAE02E9E200D1124222E6B
:10078000F32DF0623F2E08C08C3621F4832D806853
:10079000382E02C0883641F4F70193FD859193FF0E
:1007A00081917F018111B3CF982F9F7D9554933014
:1007B00028F40C5F1F4F9FE399830DC0833631F0FF
:1007C000833771F0833509F059C021C0F801808169
:1007D00089830E5F1F4F88248394912C530113C08B
:1007E0002801F2E04F0E511CF801A080B18036FEC6
:1007F00003C0692D70E002C06FEF7FEFC5010E945A
:1008000045054C018201F32DFF773F2E16C02801CC
:1008100022E0420E511CF801A080B18036FE03C0D8
:10082000692D70E002C06FEF7FEFC5010E943A05AD
:100830004C01F32DF0683F2E820133FC1BC0822D4A
:1008400090E088169906B0F4B60180E290E00E942C
:1008500050052A94F4CFF50137FC859137FE81913C
:100860005F01B60190E00E94500521102A9421E01A
:10087000821A91088114910471F7E8C0843611F04E
:10088000893641F5F80137FE07C0608171818281A8
:1008900093810C5F1F4F08C060817181072E000C8F
:1008A000880B990B0E5F1F4FF32DFF763F2E97FF9E
:1008B00009C090958095709561957F4F8F4F9F4FA0
:1008C000F0683F2E2AE030E0A3010E948C05882EBC
:1008D000861845C0853731F4232D2F7EB22E2AE0AD
:1008E00030E025C0932D997FB92E8F36C1F018F4D2
:1008F000883579F0B5C0803719F0883721F0B0C05D
:10090000E92FE061BE2EB4FE0DC0FB2DF460BF2EBA
:1009100009C034FE0AC0292F2660B22E06C028E086
:1009200030E005C020E130E002C020E132E0F80113
:10093000B7FE07C060817181828193810C5F1F4F78
:1009400006C06081718180E090E00E5F1F4FA301BF
:100950000E948C05882E8618FB2DFF773F2E36FED1
:100960000DC0232D2E7FA22E891458F434FE0BC007
:1009700032FC09C0832D8E7EA82E05C0B82CA32C76
:1009800003C0B82C01C0B92CA4FE0FC0FE01E80DB5
:10099000F11D8081803321F49A2D997EA92E09C002
:1009A000A2FE06C0B394B39404C08A2D867809F0E1
:1009B000B394A3FC11C0A0FE06C0B21488F4280CA6
:1009C000922C9B180EC0B21460F4B60180E290E045
:1009D0000E945005B394F7CFB21418F42B1802C03C
:1009E000982C212CA4FE10C0B60180E390E00E9458
:1009F0005005A2FE17C0A1FC03C088E790E002C02A
:100A000088E590E0B6010CC08A2D867859F0A1FEE9
:100A100002C08BE201C080E2A7FC8DE2B60190E04B
:100A20000E945005891438F4B60180E390E00E94DA
:100A300050059A94F7CF8A94F301E80DF11D808157
:100A4000B60190E00E9450058110F5CF222009F4F4
:100A500042CEB60180E290E00E9450052A94F6CF83
:100A6000F6018681978102C08FEF9FEF2B96E2E11E
:100A70000C940606FC010590615070400110D8F7F7
:100A8000809590958E0F9F1F0895FC0161507040D6
:100A900001900110D8F7809590958E0F9F1F0895B3
:100AA0000F931F93CF93DF93FB01238121FD03C09D
:100AB0008FEF9FEF2CC022FF16C046815781248103
:100AC00035814217530744F4A081B1819D012F5F06
:100AD0003F4F318320838C93268137812F5F3F4F97
:100AE0003783268314C08B01EC01FB010084F18560
:100AF000E02D0995892BE1F6D80116968D919C91F0
:100B00001797019617969C938E931697CE01DF91B7
:100B1000CF911F910F910895FA01AA27283051F122
:100B2000203181F1E8946F936E7F6E5F7F4F8F4F1E
:100B30009F4FAF4FB1E03ED0B4E03CD0670F781F7D
:100B4000891F9A1FA11D680F791F8A1F911DA11D62
:100B50006A0F711D811D911DA11D20D009F468949B
:100B60003F912AE0269F11243019305D3193DEF643
:100B7000CF010895462F4770405D4193B3E00FD0F9
:100B8000C9F7F6CF462F4F70405D4A3318F0495DE4
:100B900031FD4052419302D0A9F7EACFB4E0A695C7
:100BA0009795879577956795BA95C9F700976105E9
:100BB000710508959B01AC010A2E0694579547953F
:100BC00037952795BA95C9F7620F731F841F951F34
:100BD000A01D08952F923F924F925F926F927F9245
:100BE0008F929F92AF92BF92CF92DF92EF92FF923D
:100BF0000F931F93CF93DF93CDB7DEB7CA1BDB0BE9
:100C00000FB6F894DEBF0FBECDBF09942A8839888D
:100C100048885F846E847D848C849B84AA84B98494
:100C2000C884DF80EE80FD800C811B81AA81B981A0
:100C3000CE0FD11D0FB6F894DEBF0FBECDBFED01B4
:060C40000895F894FFCFB7
:100C46000C000C000400000003000000009702CA1C
:100C560002000000401454557365726E616D653A6A
:100C66002025640050617373776F72643A2025649F
:100C76000045726F72720057656C636F6D65005345
:080C86007465703A202564003A
:00000001FF
