:100000000C942A000C943C000C943C000C943C0092
:100010000C943C000C943C000C943C000C943C0070
:100020000C943C000C943C000C943C000C94490053
:100030000C943C000C943C000C943C000C943C0050
:100040000C943C000C943C000C943C000C943C0040
:100050000C943C0011241FBECFE5D8E0DEBFCDBF1D
:1000600020E0A0E6B0E001C01D92A436B207E1F79F
:100070000E945A000C94AE000C94000083B7846078
:1000800083BF12BE89B7816089BF789410926300E4
:1000900008951F920F920FB60F9211248F938091A3
:1000A00063008F5F809363008F910F900FBE0F905E
:1000B0001F9018958FEF8ABB1BBA14BA85BB889A1C
:1000C0000E943E0091E042E034E028E083B3847077
:1000D00080936000811105C0809162008F5F8093E2
:1000E000620080916300823380F082B7853368F0CC
:1000F000809161008F5F853018F48093610002C0A9
:100100009093610012BE109263008091620080FDA6
:1001100012C080916100813011F49BBBD7CF823037
:1001200011F44BBBD3CF833011F43BBBCFCF843022
:1001300069F62BBBCBCF80916100813011F42BBBD2
:10014000C5CF823011F43BBBC1CF833011F44BBB20
:10015000BDCF843009F0BACF9BBBB8CFF894FFCFA6
:00000001FF
