S00E00006B65794C43442E73726563FA
S11300000C942A000C9447000C9447000C9447006D
S11300100C9447000C9447000C9447000C94470040
S11300200C9447000C9447000C9447000C94470030
S11300300C9447000C9447000C9447000C94470020
S11300400C9447000C9447000C9447000C94470010
S11300500C94470011241FBECFE5D8E0DEBFCDBF0E
S113006010E0A0E6B0E0EAEAF8E002C005900D92E4
S1130070AC36B107D9F720E0ACE6B0E001C01D9280
S1130080AF37B207E1F70E9443010C9453040C9478
S1130090000025B32F7030E1839FC0011124822B0F
S11300A085BBAA98AA9AAA9884E68A95F1F7089536
S11300B0CF93C82F662311F0A89A01C0A898A998D5
S11300C08C2F82958F700E9449008C2F0E944900CA
S11300D0CF91089560E00E945800089561E00E9465
S11300E05800089584B3876F84BB85EA9EE0019726
S11300F0F1F700C0000085B3887F85BB80E094E001
S11301000197F1F700C0000083E00E94490080E0FD
S113011094E00197F1F700C0000083E00E944900D9
S113012080E094E00197F1F700C0000083E00E94B2
S1130130490080E094E00197F1F700C0000082E0FC
S11301400E94490088E20E946A0010926C0088E0D4
S11301500E946A00089580916C00982F9460909397
S11301606C008C600E946A000895E62FF0E0E05A6B
S1130170FF4F9081890F80680E946A000895CF9391
S1130180DF93EC018881882331F021960E946E0070
S113019089918111FBCFDF91CF91089580EE82BBCD
S11301A080B38E3E31F480B38E3EE9F381E38093D5
S11301B06D0080B38D3E31F480B38D3EE9F382E36C
S11301C080936D0080B38B3E31F480B38B3EE9F3B2
S11301D083E380936D0080ED82BB80B38E3D31F468
S11301E080B38E3DE9F384E380936D0080B38D3D4D
S11301F031F480B38D3DE9F385E380936D0080B3E2
S11302008B3D31F480B38B3DE9F386E380936D003D
S113021080EB82BB80B38E3B31F480B38E3BE9F339
S113022087E380936D0080B38D3B31F480B38D3BC5
S1130230E9F388E380936D0080B38B3B31F480B3A2
S11302408B3BE9F389E380936D0080E782BB80B345
S11302508E3731F480B38E37E9F38AE280936D00F0
S113026080B38D3731F480B38D37E9F380E3809325
S11302706D0080B38B3731F480B38B37E9F383E2BD
S113028080936D00089580EF81BB8FE082BB0E9454
S113029072000E94AB0004E610E0CEE6D0E080914C
S11302A06D001F928F931F930F93DF93CF930E9440
S11302B0690160E080E00E94B500CE010E94BF00A9
S11302C00E94CE000F900F900F900F900F900F9000
S11302D0E6CFAEE0B0E0EFE6F1E00C942A040D893D
S11302E01E8986E08C831A8309838FEF9FE79E83A0
S11302F08D83AE01475E5F4F6F89788DCE01019685
S11303000E948B01EF81F885E00FF11F10822E9679
S1130310E4E00C944604ABE0B0E0E1E9F1E00C94D5
S11303201C046C017B018A01FC0117821682838103
S113033081FFCCC1CE0101963C01F6019381F70106
S113034093FD859193FF81917F01882309F4BAC1BC
S1130350853239F493FD859193FF81917F01853234
S113036029F4B60190E00E948203E7CF912C212C5E
S1130370312CFFE1F315D8F08B3279F038F4803268
S113038079F08332A1F4232D20611DC08D3261F0F8
S1130390803369F4232D216016C0832D8260382EAA
S11303A0E32DE4603E2E2AC0F32DF8601DC037FC17
S11303B02DC020ED280F2A3040F08E32B9F436FCDF
S11303C081C1232D2064322E19C036FE06C08AE076
S11303D0989E200D1124922E11C0EAE02E9E200D2D
S11303E01124222EF32DF0623F2E08C08C3621F406
S11303F0832D8068382E02C0883641F4F70193FDBE
S1130400859193FF81917F018111B3CF982F9F7DB7
S11304109554933028F40C5F1F4F9FE399830DC0CC
S1130420833631F0833771F0833509F059C021C028
S1130430F801808189830E5F1F4F88248394912C57
S1130440530113C02801F2E04F0E511CF801A080A3
S1130450B18036FE03C0692D70E002C06FEF7FEFFC
S1130460C5010E9477034C018201F32DFF773F2ED3
S113047016C0280122E0420E511CF801A080B18070
S113048036FE03C0692D70E002C06FEF7FEFC50137
S11304900E946C034C01F32DF0683F2E820133FC63
S11304A01BC0822D90E088169906B0F4B60180E254
S11304B090E00E9482032A94F4CFF50137FC8591E1
S11304C037FE81915F01B60190E00E948203211002
S11304D02A9421E0821A91088114910471F7E8C0EA
S11304E0843611F0893641F5F80137FE07C0608182
S11304F07181828193810C5F1F4F08C0608171817B
S1130500072E000C880B990B0E5F1F4FF32DFF76FF
S11305103F2E97FF09C090958095709561957F4F08
S11305208F4F9F4FF0683F2E2AE030E0A3010E94D6
S1130530BE03882E861845C0853731F4232D2F7EBF
S1130540B22E2AE030E025C0932D997FB92E8F3644
S1130550C1F018F4883579F0B5C0803719F08837C0
S113056021F0B0C0E92FE061BE2EB4FE0DC0FB2D1A
S1130570F460BF2E09C034FE0AC0292F2660B22EB3
S113058006C028E030E005C020E130E002C020E1F0
S113059032E0F801B7FE07C06081718182819381E6
S11305A00C5F1F4F06C06081718180E090E00E5F98
S11305B01F4FA3010E94BE03882E8618FB2DFF77D0
S11305C03F2E36FE0DC0232D2E7FA22E891458F403
S11305D034FE0BC032FC09C0832D8E7EA82E05C0CC
S11305E0B82CA32C03C0B82C01C0B92CA4FE0FC096
S11305F0FE01E80DF11D8081803321F49A2D997E4E
S1130600A92E09C0A2FE06C0B394B39404C08A2DD7
S1130610867809F0B394A3FC11C0A0FE06C0B214FE
S113062088F4280C922C9B180EC0B21460F4B60106
S113063080E290E00E948203B394F7CFB21418F4DE
S11306402B1802C0982C212CA4FE10C0B60180E304
S113065090E00E948203A2FE17C0A1FC03C088E7B9
S113066090E002C088E590E0B6010CC08A2D86783F
S113067059F0A1FE02C08BE201C080E2A7FC8DE22A
S1130680B60190E00E948203891438F4B60180E335
S113069090E00E9482039A94F7CF8A94F301E80DC4
S11306A0F11D8081B60190E00E9482038110F5CF94
S11306B0222009F442CEB60180E290E00E94820337
S11306C02A94F6CFF6018681978102C08FEF9FEFBF
S11306D02B96E2E10C943804FC01059061507040C3
S11306E00110D8F7809590958E0F9F1F0895FC01F7
S11306F06150704001900110D8F7809590958E0F4D
S11307009F1F08950F931F93CF93DF93FB012381C2
S113071021FD03C08FEF9FEF2CC022FF16C046813E
S11307205781248135814217530744F4A081B18154
S11307309D012F5F3F4F318320838C932681378126
S11307402F5F3F4F3783268314C08B01EC01FB01DD
S11307500084F185E02D0995892BE1F6D8011696E0
S11307608D919C911797019617969C938E9316974B
S1130770CE01DF91CF911F910F910895FA01AA271D
S1130780283051F1203181F1E8946F936E7F6E5FD0
S11307907F4F8F4F9F4FAF4FB1E03ED0B4E03CD07E
S11307A0670F781F891F9A1FA11D680F791F8A1F61
S11307B0911DA11D6A0F711D811D911DA11D20D0C8
S11307C009F468943F912AE0269F11243019305D82
S11307D03193DEF6CF010895462F4770405D419373
S11307E0B3E00FD0C9F7F6CF462F4F70405D4A33C0
S11307F018F0495D31FD4052419302D0A9F7EACF88
S1130800B4E0A6959795879577956795BA95C9F7B6
S113081000976105710508959B01AC010A2E0694A9
S11308205795479537952795BA95C9F7620F731F62
S1130830841F951FA01D08952F923F924F925F929F
S11308406F927F928F929F92AF92BF92CF92DF92DC
S1130850EF92FF920F931F93CF93DF93CDB7DEB741
S1130860CA1BDB0B0FB6F894DEBF0FBECDBF0994D5
S11308702A88398848885F846E847D848C849B842C
S1130880AA84B984C884DF80EE80FD800C811B813A
S1130890AA81B981CE0FD11D0FB6F894DEBF0FBE69
S10D08A0CDBFED010895F894FFCFD9
S10F08AA004014544B65793A202563008B
S9030000FC
