:100000000C942A000C943F000C943F000C943F0089
:100010000C943F000C943F000C943F000C943F0064
:100020000C943F000C943F000C943F000C943F0054
:100030000C943F000C943F000C943F000C943F0044
:100040000C943F000C943F000C943F000C943F0034
:100050000C943F0011241FBECFE5D8E0DEBFCDBF1A
:1000600010E0A0E6B0E0E2E9F1E002C005900D92F8
:10007000AE36B107D9F70E9489000C94C7000C94E2
:10008000000088BB84E082BB89EF90E00197F1F724
:1000900000C0000012BA83ED90E30197F1F700C0B1
:1000A0000000089588E30E94410089EF90E00197E5
:1000B000F1F700C0000081E00E94410089EF90E06C
:1000C0000197F1F700C000008EE00E94410089EF27
:1000D00090E00197F1F700C0000080E80E94410025
:1000E00089EF90E00197F1F700C00000089588BB08
:1000F00085E082BB89EF90E00197F1F700C0000036
:1001000081E082BB83ED90E30197F1F700C000002E
:100110000895EF92FF920F931F93CF93DF93CDB784
:10012000DEB72D970FB6F894DEBF0FBECDBF8DE0C2
:10013000E0E6F0E0DE01119601900D928A95E1F77C
:100140008FEF87BB87E081BB0E9452008FE00E9447
:1001500041008E010F5F1F4F7E018EE0E80EF11C03
:10016000F80181918F010E9477000E151F05C1F7DC
:1001700080E090E02D960FB6F894DEBF0FBECDBFA5
:10018000DF91CF911F910F91FF90EF900895F89418
:02019000FFCF9F
:0E01920048656C6C6F20576F726C6421000022
:00000001FF
