S00D000070617274332E737265632D
S11300000C942A000C9434000C9434000C943400A6
S11300100C9434000C9434000C9434000C9434008C
S11300200C9434000C9434000C9434000C9434007C
S11300300C9434000C9434000C9434000C9434006C
S11300400C9434000C9434000C9434000C9434005C
S11300500C94340011241FBECFE5D8E0DEBFCDBF21
S11300600E9436000C9475000C9400008FEF84BB42
S113007015BA61E041E050E065BB2FE936E871E074
S1130080215030407040E1F700C0000081E090E072
S113009016C087E090E09A01082E02C0220F331F99
S11300A00A94E2F725BB2FE936E871E0215030408D
S11300B07040E1F700C00000019769F7DDCF9A01B5
S11300C0082E02C0220F331F0A94E2F725BB2FE942
S11300D036E871E0215030407040E1F700C0000084
S11100E001968830910559F7D4CFF894FFCFDC
S9030000FC
