:100000000C9430000C944D000C944D000C944D0059
:100010000C944D000C944D000C944D000C944D002C
:100020000C944D000C944D000C944D000C944D001C
:100030000C944D000C94DA000C94C1000C944D000B
:100040000C944D000C944D000C944D000C944D00FC
:100050000C944D006364696E6F70737578585B0023
:1000600011241FBECFE5D8E0DEBFCDBF10E0A0E673
:10007000B0E0ECEBF8E002C005900D92A237B107BA
:10008000D9F720E0A2E7B0E001C01D92AA3DB20777
:10009000E1F70E944F000C945C040C9400008FEF79
:1000A00087BB18BA11BA12BA83E389B910BC88E9C0
:1000B0008AB97894E4EDF0E080E690E0938382835F
:1000C00091838083C2E7D0E00EE610E0DF93CF9308
:1000D0001F930F930E94F400888188BB9FEF20E755
:1000E00082E0915020408040E1F700C000000F9076
:1000F0000F900F900F90EACF9091B2009F5F9F7189
:100100002091B0009217E1F3E92FF0E0EC54FF4F9B
:1001100080838FB7F8949093B200559A8FBF08955B
:10012000CF93C82F8A3019F48DE00E947C008C2F69
:100130000E947C0080E090E0CF9108958091B10012
:100140009091B300891761F08F5F8F71E82FF0E015
:10015000E057FF4F90818093B100892F90E0089580
:100160008FEF9FEF0895CF93DF930E949E00EC01E5
:100170009923DCF30E947C00CE019927DF91CF9177
:1001800008950F930FB7EF93FF93E091B000F091B4
:10019000B200E395EF71EF1301C05598E093B00002
:1001A000F0E0EC54FF4FE081ECB9FF91EF910FBF0D
:1001B0000F9118950F930FB79F939CB1EF93FF93F7
:1001C000E091B300F091B100E395EF71FE1731F0CB
:1001D000E093B300F0E0E057FF4F9083FF91EF9181
:1001E0009F910FBF0F911895A0E0B0E0EAEFF0E00B
:1001F0000C943504AE014B5F5F4FFA016191719130
:10020000AF018091D4009091D5000E94A602E2E057
:100210000C94510420FD09C0FC0123FD05C022FF00
:1002200002C07383628351834083089544FD17C0E5
:1002300046FD17C0AB01BC01DA01FB01AA0FBB1FD1
:10024000EE1FFF1F1094D1F74A0F5B1F6E1F7F1F19
:10025000CB01BA01660F771F881F991F09C033E0D1
:1002600001C034E0660F771F881F991F3150D1F706
:10027000620F711D811D911D08950F931F93CF93E0
:10028000DF938C01C8010E94CB03EC0197FD08C0ED
:100290000E94B703892BB1F7B801CE010E9409046F
:1002A000CE01DF91CF911F910F9108958F929F9270
:1002B000AF92BF92EF92FF920F931F93CF93DF9372
:1002C0008C01D62F7A01B22E0E94CB039C013327DA
:1002D0002B32310531F02D32310561F48B2D8068E0
:1002E000B82ED15011F480E068C0C8010E94CB0341
:1002F00097FDF9CFCB2DCD7F2B2D207309F58033C2
:10030000F9F4AA24AA94AD0E09F443C0C8010E94CE
:10031000CB0397FD3EC09C012F7D33272835310547
:1003200049F4C264D250A9F1C8010E94CB0397FFDF
:1003300007C02FC0B6FE02C0C26001C0C261DA2D84
:10034000812C912C540120ED280F283080F0C4FF1F
:1003500004C0B8010E94090419C02A3040F0C6FF49
:10036000F8CF2F7D3FEE320F363098F727504C2FC5
:10037000C501B4010E9416014B015C01C260D1505D
:1003800059F0C8010E94CB0397FFDDCFC1FD04C027
:10039000AACF812C912C5401C7FF08C0B094A0941F
:1003A00090948094811C911CA11CB11C2C2FB50130
:1003B000A401C7010E940A0181E0DF91CF911F9142
:1003C0000F91FF90EF90BF90AF909F908F90089506
:1003D000A0E2B0E0EEEEF1E00C9428045C01962E71
:1003E0007A01F9018E010F5F1F4F680180E2D80189
:1003F0001D928A95E9F7D50113968C9080E090E0E4
:10040000612C712C30E061E070E083FC259183FE6B
:1004100021918F01522E211103C080E090E092C003
:100420002E3511F4009751F1432F50E0481759072A
:100430003CF42D3559F12D3219F4772009F103C020
:10044000772009F46AC0452D469546954695D60114
:10045000A40FB11D452D47708B0102C0000F111F65
:100460004A95E2F7A8015C91452B4C93651459F02D
:10047000561410F45394E7CF5A94E5CF31E004C0FA
:100480007724739401C0712C0196BFCF772019F0A7
:100490008E8180628E83311103C08824839417C0BB
:1004A000F6019E012F5D3F4F8081809581932E172D
:1004B0003F07D1F7F2CFE114F10429F0D7018C9373
:1004C000F70131967F019A94812C9920F9F0C501AA
:1004D0000E94CB0397FD18C0FC01FF2723E0F59590
:1004E000E7952A95E1F7EC0DFD1D208130E0AC0188
:1004F0004770552702C0359527954A95E2F720FDAC
:10050000DACFB5010E940904811087CFE114F1040C
:1005100011F0D7011C92C80115C0422F469546958F
:100520004695D601A40FB11D422F47708B0102C022
:10053000000F111F4A95E2F7A8015C91452B4C93DF
:10054000622EA2CFA096EFE00C944404A0E0B0E0AD
:10055000ECEAF2E00C9428046C01EB015A01FC0176
:1005600017821682512CF601E380FE01E3FC85918F
:10057000E3FE8191182FEF01882309F4EEC090E08B
:100580000E94B703892B21F0C6010E943D01EBCFE9
:10059000153241F4FE01E3FC1591E3FE1191EF01E8
:1005A000153281F4C6010E94CB0397FDD4C0412FC0
:1005B00050E09C01332724173507A9F2B6010E94A9
:1005C0000904CBC01A3239F4E3FC1591E3FE119112
:1005D000EF0101E001C000E0F12C20ED210F2A30F5
:1005E00080F402606F2D70E080E090E040E20E94B5
:1005F0001601F62EFE01E3FC1591E3FE1191EF01C9
:10060000ECCF01FF03C0F11003C0A7C0FF24FA9490
:10061000183619F01C3651F010C0FE01E3FC15919C
:10062000E3FE1191EF01183641F408600460FE0109
:10063000E3FC1591E3FE1191EF01112309F48DC044
:10064000612F70E084E590E00E94C003892B09F4DB
:1006500084C000FD07C0F50180809180C50102962D
:100660005C0102C0812C912C1E3651F4F6014681AA
:10067000578160E070E0202FC4010E940A0173CF0F
:100680001336A9F401FD02C0FF24F394C6010E94B1
:10069000CB0397FD60C08114910429F0F40180839D
:1006A000C40101964C01FA94F110F0CF50C01B35F3
:1006B00059F49E01A4016F2DC6010E94E801EC01CE
:1006C000892B09F044C03EC0C6010E943D0197FD40
:1006D00042C01F3661F128F4143639F1193651F150
:1006E00028C0133771F0153701F123C0811491042C
:1006F00029F0F4016082C40101964C01FA94FF20B4
:1007000071F0C6010E94CB033C0197FD08C00E9416
:10071000B703892B59F3B601C3010E940904811460
:100720009104A9F0F401108212C0006203C00061BC
:1007300001C00064202FA4016F2DC6010E94560144
:10074000811105C0F6018381807329F406C000FD84
:100750000ACF539408CF552019F0852D90E002C0A0
:100760008FEF9FEFCDB7DEB7EFE00C94440491110B
:100770000C942204803219F089508550C8F70895EE
:10078000FC010590061621F00020D9F7C00108955C
:100790003197CF010895CF93DF93EC012B8120FF98
:1007A00033C026FF0AC02F7B2B838E819F81019649
:1007B0009F838E838A8190E029C022FF0FC0E88149
:1007C000F9818081082E000C990B009719F42062A2
:1007D0002B831AC03196F983E8830EC0EA85FB8526
:1007E000099597FF09C02B81019611F080E201C0A5
:1007F00080E1822B8B8308C02E813F812F5F3F4F8A
:100800003F832E83992702C08FEF9FEFDF91CF9117
:100810000895FB01238120FF12C026FD10C08F3FE9
:100820003FEF930761F082832F7D2064238326812D
:1008300037812150310937832683992708958FEF17
:100840009FEF08959927882708952F923F924F92FE
:100850005F926F927F928F929F92AF92BF92CF9250
:10086000DF92EF92FF920F931F93CF93DF93CDB759
:10087000DEB7CA1BDB0B0FB6F894DEBF0FBECDBFD1
:1008800009942A88398848885F846E847D848C84A2
:100890009B84AA84B984C884DF80EE80FD800C81AB
:1008A0001B81AA81B981CE0FD11D0FB6F894DEBF8E
:0C08B0000FBECDBFED010895F894FFCFFE
:1008BC0000000003000000009000B300000025734E
:0208CC0000002A
:00000001FF
